{
  "_format": "hh-sol-artifact-1",
  "contractName": "Raffle",
  "sourceName": "contracts/Raffle.sol",
  "abi": [
    {
      "inputs": [
        {
          "internalType": "address",
          "name": "vrfCoorinatorV2",
          "type": "address"
        },
        {
          "internalType": "uint256",
          "name": "entranceFee",
          "type": "uint256"
        },
        {
          "internalType": "bytes32",
          "name": "gasLane",
          "type": "bytes32"
        },
        {
          "internalType": "uint64",
          "name": "subscriptionId",
          "type": "uint64"
        },
        {
          "internalType": "uint32",
          "name": "callbackGasLimit",
          "type": "uint32"
        },
        {
          "internalType": "uint256",
          "name": "interval",
          "type": "uint256"
        }
      ],
      "stateMutability": "nonpayable",
      "type": "constructor"
    },
    {
      "inputs": [
        {
          "internalType": "address",
          "name": "have",
          "type": "address"
        },
        {
          "internalType": "address",
          "name": "want",
          "type": "address"
        }
      ],
      "name": "OnlyCoordinatorCanFulfill",
      "type": "error"
    },
    {
      "inputs": [],
      "name": "Raffle__NotEnoughtEthEntered",
      "type": "error"
    },
    {
      "inputs": [],
      "name": "Raffle__NotOpen",
      "type": "error"
    },
    {
      "inputs": [],
      "name": "Raffle__TransferFailed",
      "type": "error"
    },
    {
      "inputs": [
        {
          "internalType": "uint256",
          "name": "currentBalance",
          "type": "uint256"
        },
        {
          "internalType": "uint256",
          "name": "numPlayers",
          "type": "uint256"
        },
        {
          "internalType": "uint256",
          "name": "raffleState",
          "type": "uint256"
        }
      ],
      "name": "Raffle__upkeepNotNeeded",
      "type": "error"
    },
    {
      "anonymous": false,
      "inputs": [
        {
          "indexed": true,
          "internalType": "address",
          "name": "player",
          "type": "address"
        }
      ],
      "name": "RaffleEnter",
      "type": "event"
    },
    {
      "anonymous": false,
      "inputs": [
        {
          "indexed": true,
          "internalType": "uint256",
          "name": "requestId",
          "type": "uint256"
        }
      ],
      "name": "RequestedRaffleWinner",
      "type": "event"
    },
    {
      "anonymous": false,
      "inputs": [
        {
          "indexed": true,
          "internalType": "address",
          "name": "winner",
          "type": "address"
        }
      ],
      "name": "WinnerPicked",
      "type": "event"
    },
    {
      "inputs": [
        {
          "internalType": "bytes",
          "name": "",
          "type": "bytes"
        }
      ],
      "name": "checkUpkeep",
      "outputs": [
        {
          "internalType": "bool",
          "name": "upkeepNeeded",
          "type": "bool"
        },
        {
          "internalType": "bytes",
          "name": "",
          "type": "bytes"
        }
      ],
      "stateMutability": "nonpayable",
      "type": "function"
    },
    {
      "inputs": [],
      "name": "enterRaffle",
      "outputs": [],
      "stateMutability": "payable",
      "type": "function"
    },
    {
      "inputs": [],
      "name": "getEntranceFee",
      "outputs": [
        {
          "internalType": "uint256",
          "name": "",
          "type": "uint256"
        }
      ],
      "stateMutability": "view",
      "type": "function"
    },
    {
      "inputs": [],
      "name": "getLatestTimeStamp",
      "outputs": [
        {
          "internalType": "uint256",
          "name": "",
          "type": "uint256"
        }
      ],
      "stateMutability": "view",
      "type": "function"
    },
    {
      "inputs": [],
      "name": "getNumWords",
      "outputs": [
        {
          "internalType": "uint256",
          "name": "",
          "type": "uint256"
        }
      ],
      "stateMutability": "pure",
      "type": "function"
    },
    {
      "inputs": [],
      "name": "getNumberOfPlayers",
      "outputs": [
        {
          "internalType": "uint256",
          "name": "",
          "type": "uint256"
        }
      ],
      "stateMutability": "view",
      "type": "function"
    },
    {
      "inputs": [
        {
          "internalType": "uint256",
          "name": "index",
          "type": "uint256"
        }
      ],
      "name": "getPlayer",
      "outputs": [
        {
          "internalType": "address",
          "name": "",
          "type": "address"
        }
      ],
      "stateMutability": "view",
      "type": "function"
    },
    {
      "inputs": [],
      "name": "getRecentWinner",
      "outputs": [
        {
          "internalType": "address",
          "name": "",
          "type": "address"
        }
      ],
      "stateMutability": "view",
      "type": "function"
    },
    {
      "inputs": [],
      "name": "getRequestConfirmation",
      "outputs": [
        {
          "internalType": "uint256",
          "name": "",
          "type": "uint256"
        }
      ],
      "stateMutability": "pure",
      "type": "function"
    },
    {
      "inputs": [
        {
          "internalType": "bytes",
          "name": "",
          "type": "bytes"
        }
      ],
      "name": "performUpkeep",
      "outputs": [],
      "stateMutability": "nonpayable",
      "type": "function"
    },
    {
      "inputs": [
        {
          "internalType": "uint256",
          "name": "requestId",
          "type": "uint256"
        },
        {
          "internalType": "uint256[]",
          "name": "randomWords",
          "type": "uint256[]"
        }
      ],
      "name": "rawFulfillRandomWords",
      "outputs": [],
      "stateMutability": "nonpayable",
      "type": "function"
    }
  ],
  "bytecode": "0x6101606040523480156200001257600080fd5b5060405162001714380380620017148339818101604052810190620000389190620001ad565b858073ffffffffffffffffffffffffffffffffffffffff1660808173ffffffffffffffffffffffffffffffffffffffff1660601b81525050508460a081815250508573ffffffffffffffffffffffffffffffffffffffff1660c08173ffffffffffffffffffffffffffffffffffffffff1660601b815250508360e081815250508267ffffffffffffffff166101008167ffffffffffffffff1660c01b815250508163ffffffff166101208163ffffffff1660e01b815250506000600160146101000a81548160ff02191690836001811115620001195762000118620002b5565b5b0217905550426002819055508061014081815250505050505050506200036b565b6000815190506200014b81620002e9565b92915050565b600081519050620001628162000303565b92915050565b60008151905062000179816200031d565b92915050565b600081519050620001908162000337565b92915050565b600081519050620001a78162000351565b92915050565b60008060008060008060c08789031215620001cd57620001cc620002e4565b5b6000620001dd89828a016200013a565b9650506020620001f089828a0162000168565b95505060406200020389828a0162000151565b94505060606200021689828a0162000196565b93505060806200022989828a016200017f565b92505060a06200023c89828a0162000168565b9150509295509295509295565b6000620002568262000267565b9050919050565b6000819050919050565b600073ffffffffffffffffffffffffffffffffffffffff82169050919050565b6000819050919050565b600063ffffffff82169050919050565b600067ffffffffffffffff82169050919050565b7f4e487b7100000000000000000000000000000000000000000000000000000000600052602160045260246000fd5b600080fd5b620002f48162000249565b81146200030057600080fd5b50565b6200030e816200025d565b81146200031a57600080fd5b50565b620003288162000287565b81146200033457600080fd5b50565b620003428162000291565b81146200034e57600080fd5b50565b6200035c81620002a1565b81146200036857600080fd5b50565b60805160601c60a05160c05160601c60e0516101005160c01c6101205160e01c61014051611334620003e0600039600061075601526000610612015260006105ef015260006105ce0152600061059201526000818161027e01526103640152600081816102a401526102f801526113346000f3fe60806040526004361061009c5760003560e01c8063473f1ddc11610064578063473f1ddc1461015357806353a2c19a1461017e5780636e04ff0d146101a9578063ca6a9ef8146101e7578063e55ae4e814610212578063fd6673f51461024f5761009c565b806309bc33a7146100a15780631fe543e3146100cc5780632cfcc539146100f5578063320229eb146100ff5780634585e33b1461012a575b600080fd5b3480156100ad57600080fd5b506100b661027a565b6040516100c39190610f73565b60405180910390f35b3480156100d857600080fd5b506100f360048036038101906100ee9190610d76565b6102a2565b005b6100fd610362565b005b34801561010b57600080fd5b506101146104d1565b6040516101219190610f73565b60405180910390f35b34801561013657600080fd5b50610151600480360381019061014c9190610c86565b6104db565b005b34801561015f57600080fd5b506101686106da565b6040516101759190610eac565b60405180910390f35b34801561018a57600080fd5b50610193610704565b6040516101a09190610f73565b60405180910390f35b3480156101b557600080fd5b506101d060048036038101906101cb9190610cd3565b610713565b6040516101de929190610ef0565b60405180910390f35b3480156101f357600080fd5b506101fc6107c0565b6040516102099190610f73565b60405180910390f35b34801561021e57600080fd5b5061023960048036038101906102349190610d1c565b6107cd565b6040516102469190610eac565b60405180910390f35b34801561025b57600080fd5b50610264610814565b6040516102719190610f73565b60405180910390f35b60007f0000000000000000000000000000000000000000000000000000000000000000905090565b7f000000000000000000000000000000000000000000000000000000000000000073ffffffffffffffffffffffffffffffffffffffff163373ffffffffffffffffffffffffffffffffffffffff161461035457337f00000000000000000000000000000000000000000000000000000000000000006040517f1cf993f400000000000000000000000000000000000000000000000000000000815260040161034b929190610ec7565b60405180910390fd5b61035e8282610820565b5050565b7f00000000000000000000000000000000000000000000000000000000000000003410156103bc576040517fdb5a877500000000000000000000000000000000000000000000000000000000815260040160405180910390fd5b600060018111156103d0576103cf611228565b5b600160149054906101000a900460ff1660018111156103f2576103f1611228565b5b14610429576040517f1425571c00000000000000000000000000000000000000000000000000000000815260040160405180910390fd5b6000339080600181540180825580915050600190039060005260206000200160009091909190916101000a81548173ffffffffffffffffffffffffffffffffffffffff021916908373ffffffffffffffffffffffffffffffffffffffff1602179055503373ffffffffffffffffffffffffffffffffffffffff167f0805e1d667bddb8a95f0f09880cf94f403fb596ce79928d9f29b74203ba284d460405160405180910390a2565b6000600254905090565b60006104f560405180602001604052806000815250610713565b509050806105645747600080549050600160149054906101000a900460ff16600181111561052657610525611228565b5b6040517f837325cd00000000000000000000000000000000000000000000000000000000815260040161055b93929190610f8e565b60405180910390fd5b60018060146101000a81548160ff0219169083600181111561058957610588611228565b5b021790555060007f000000000000000000000000000000000000000000000000000000000000000073ffffffffffffffffffffffffffffffffffffffff16635d3b1d307f00000000000000000000000000000000000000000000000000000000000000007f000000000000000000000000000000000000000000000000000000000000000060037f000000000000000000000000000000000000000000000000000000000000000060016040518663ffffffff1660e01b8152600401610653959493929190610f20565b602060405180830381600087803b15801561066d57600080fd5b505af1158015610681573d6000803e3d6000fd5b505050506040513d601f19601f820116820180604052508101906106a59190610d49565b9050807fcd6e45c8998311cab7e9d4385596cac867e20a0587194b954fa3a731c93ce78b60405160405180910390a250505050565b6000600160009054906101000a900473ffffffffffffffffffffffffffffffffffffffff16905090565b6000600163ffffffff16905090565b600060606000600160149054906101000a900460ff16600181111561073b5761073a611228565b5b6000600181111561074f5761074e611228565b5b14905060007f000000000000000000000000000000000000000000000000000000000000000060025442610783919061106e565b119050600080600080549050119050600080471190508380156107a35750825b80156107ac5750815b80156107b55750805b955050505050915091565b6000600361ffff16905090565b60008082815481106107e2576107e1611257565b5b9060005260206000200160009054906101000a900473ffffffffffffffffffffffffffffffffffffffff169050919050565b60008080549050905090565b600080805490508260008151811061083b5761083a611257565b5b602002602001015161084d9190611199565b9050600080828154811061086457610863611257565b5b9060005260206000200160009054906101000a900473ffffffffffffffffffffffffffffffffffffffff16905080600160006101000a81548173ffffffffffffffffffffffffffffffffffffffff021916908373ffffffffffffffffffffffffffffffffffffffff1602179055506000600160146101000a81548160ff021916908360018111156108f8576108f7611228565b5b0217905550600067ffffffffffffffff81111561091857610917611286565b5b6040519080825280602002602001820160405280156109465781602001602082028036833780820191505090505b506000908051906020019061095c929190610a51565b504260028190555060008173ffffffffffffffffffffffffffffffffffffffff164760405161098a90610e97565b60006040518083038185875af1925050503d80600081146109c7576040519150601f19603f3d011682016040523d82523d6000602084013e6109cc565b606091505b5050905080610a07576040517fa1d04b3900000000000000000000000000000000000000000000000000000000815260040160405180910390fd5b8173ffffffffffffffffffffffffffffffffffffffff167f5b690ec4a06fe979403046eaeea5b3ce38524683c3001f662c8b5a829632f7df60405160405180910390a25050505050565b828054828255906000526020600020908101928215610aca579160200282015b82811115610ac95782518260006101000a81548173ffffffffffffffffffffffffffffffffffffffff021916908373ffffffffffffffffffffffffffffffffffffffff16021790555091602001919060010190610a71565b5b509050610ad79190610adb565b5090565b5b80821115610af4576000816000905550600101610adc565b5090565b6000610b0b610b0684610fea565b610fc5565b90508083825260208201905082856020860282011115610b2e57610b2d6112bf565b5b60005b85811015610b5e5781610b448882610c5c565b845260208401935060208301925050600181019050610b31565b5050509392505050565b6000610b7b610b7684611016565b610fc5565b905082815260208101848484011115610b9757610b966112c4565b5b610ba2848285611126565b509392505050565b600082601f830112610bbf57610bbe6112ba565b5b8135610bcf848260208601610af8565b91505092915050565b60008083601f840112610bee57610bed6112ba565b5b8235905067ffffffffffffffff811115610c0b57610c0a6112b5565b5b602083019150836001820283011115610c2757610c266112bf565b5b9250929050565b600082601f830112610c4357610c426112ba565b5b8135610c53848260208601610b68565b91505092915050565b600081359050610c6b816112e7565b92915050565b600081519050610c80816112e7565b92915050565b60008060208385031215610c9d57610c9c6112ce565b5b600083013567ffffffffffffffff811115610cbb57610cba6112c9565b5b610cc785828601610bd8565b92509250509250929050565b600060208284031215610ce957610ce86112ce565b5b600082013567ffffffffffffffff811115610d0757610d066112c9565b5b610d1384828501610c2e565b91505092915050565b600060208284031215610d3257610d316112ce565b5b6000610d4084828501610c5c565b91505092915050565b600060208284031215610d5f57610d5e6112ce565b5b6000610d6d84828501610c71565b91505092915050565b60008060408385031215610d8d57610d8c6112ce565b5b6000610d9b85828601610c5c565b925050602083013567ffffffffffffffff811115610dbc57610dbb6112c9565b5b610dc885828601610baa565b9150509250929050565b610ddb816110a2565b82525050565b610dea816110b4565b82525050565b610df9816110c0565b82525050565b6000610e0a82611047565b610e148185611052565b9350610e24818560208601611135565b610e2d816112d3565b840191505092915050565b6000610e45600083611063565b9150610e50826112e4565b600082019050919050565b610e64816110ca565b82525050565b610e73816110f8565b82525050565b610e8281611102565b82525050565b610e9181611112565b82525050565b6000610ea282610e38565b9150819050919050565b6000602082019050610ec16000830184610dd2565b92915050565b6000604082019050610edc6000830185610dd2565b610ee96020830184610dd2565b9392505050565b6000604082019050610f056000830185610de1565b8181036020830152610f178184610dff565b90509392505050565b600060a082019050610f356000830188610df0565b610f426020830187610e88565b610f4f6040830186610e5b565b610f5c6060830185610e79565b610f696080830184610e79565b9695505050505050565b6000602082019050610f886000830184610e6a565b92915050565b6000606082019050610fa36000830186610e6a565b610fb06020830185610e6a565b610fbd6040830184610e6a565b949350505050565b6000610fcf610fe0565b9050610fdb8282611168565b919050565b6000604051905090565b600067ffffffffffffffff82111561100557611004611286565b5b602082029050602081019050919050565b600067ffffffffffffffff82111561103157611030611286565b5b61103a826112d3565b9050602081019050919050565b600081519050919050565b600082825260208201905092915050565b600081905092915050565b6000611079826110f8565b9150611084836110f8565b925082821015611097576110966111ca565b5b828203905092915050565b60006110ad826110d8565b9050919050565b60008115159050919050565b6000819050919050565b600061ffff82169050919050565b600073ffffffffffffffffffffffffffffffffffffffff82169050919050565b6000819050919050565b600063ffffffff82169050919050565b600067ffffffffffffffff82169050919050565b82818337600083830152505050565b60005b83811015611153578082015181840152602081019050611138565b83811115611162576000848401525b50505050565b611171826112d3565b810181811067ffffffffffffffff821117156111905761118f611286565b5b80604052505050565b60006111a4826110f8565b91506111af836110f8565b9250826111bf576111be6111f9565b5b828206905092915050565b7f4e487b7100000000000000000000000000000000000000000000000000000000600052601160045260246000fd5b7f4e487b7100000000000000000000000000000000000000000000000000000000600052601260045260246000fd5b7f4e487b7100000000000000000000000000000000000000000000000000000000600052602160045260246000fd5b7f4e487b7100000000000000000000000000000000000000000000000000000000600052603260045260246000fd5b7f4e487b7100000000000000000000000000000000000000000000000000000000600052604160045260246000fd5b600080fd5b600080fd5b600080fd5b600080fd5b600080fd5b600080fd5b6000601f19601f8301169050919050565b50565b6112f0816110f8565b81146112fb57600080fd5b5056fea26469706673582212200b3d61d580afdfbd59f00bcd0d5a6e5dbd28c6a1d8dc2e2888f05664bd6854c664736f6c63430008070033",
  "linkReferences": {},
  "deployedLinkReferences": {}
}